:100000000C943A000C9457000C9457000C94570031
:100010000C9457000C9457000C9457000C94570004
:100020000C9457000C9457000C9457000C945700F4
:100030000C9457000C9457000C9457000C945700E4
:100040000C9457000C9457000C9457000C945700D4
:100050000C9457000C9457000C9457000C945700C4
:100060000C9457000C9457000C9457000C945700B4
:100070000C94570011241FBECFEFD4E0DEBFCDBFDC
:1000800011E0A0E0B1E0E2E0F0E102C005900D92E5
:10009000AE3FB107D9F722E0AEEFB1E001C01D924B
:1000A000A531B207E1F70E94D7060C94FF070C9424
:1000B0000000CF93DF93EC010E94E6036A818981FF
:1000C0000E944506813031F48CE40E9413058CEEC9
:1000D00091E017C06A8189810E9445068F3F31F403
:1000E00087E50E94130583EF91E00BC06A81898147
:1000F0000E944506811107C084E40E94130589EF20
:1001000091E00E948B0186E08883DF91CF91089572
:10011000CF93DF93EC010E94E6030E940905882338
:10012000A1F00E940B058C3419F483EF91E009C013
:10013000873519F48CEE91E004C0843421F489EF02
:1001400091E00E948B0186E08883DF91CF91089532
:10015000E1E6F0E080E880831082A89584B7877F8D
:1001600084BFE0E6F0E0808188618083108208959A
:100170006230710519F170F46130710559F5FC01B7
:10018000FF2724A1392F3095922F932394A385A183
:1001900083231DC06330710541F064307105D1F4D3
:1001A000FC01FF2784A1892B0FC0FC01FF2784A13C
:1001B000892B84A385A19095892309C0FC01FF2781
:1001C00084A1292F2095822384A385A1892B85A32F
:1001D00081E0089580E00895E82FF0E0EE0FFF1F22
:1001E000E250FE4F8081882321F0918181E08927B0
:1001F00002C080E090E081700895E82FF0E0EE0FFB
:10020000FF1FE250FE4F8081811102C0818102C038
:1002100080E090E081700895E82FF0E0EE0FFF1F7E
:10022000E250FE4F80810895E82FF0E0EE0FFF1FAF
:10023000E250FE4F908181E0892708957F928F924E
:100240009F92AF92BF92CF92DF92EF92FF920F9365
:100250001F93CF93DF93CEEFD1E056E4C52E51E04C
:10026000D52E66E0762E88818983F6010191119161
:100270006F015801BB24F50124A1E12EFF2485A1C3
:1002800090E08E219F2130E02E213F21232B31F061
:10029000892B51F433E0832E912C0DC0892B41F42E
:1002A00088248394912C07C094E0892E912C03C05C
:1002B00082E0882E912C64E070E0C8010E94B800B2
:1002C00062E070E0C8010E94B800872D8A95F1F7BE
:1002D000F50183A190E0E822F92281E0EF2809F0FE
:1002E00080E08883B401C8010E94B8002296F2E041
:1002F000C830DF0709F0B7CFDF91CF911F910F9181
:10030000FF90EF90DF90CF90BF90AF909F908F9035
:100310007F9008950895CF93DF93EC0180E591E0FD
:100320000E94E1038AE00E94D103CE010E94C20331
:1003300081E090E00E94D703DF91CF910C94E60317
:10034000CF93DF93EC0180E591E00E94E1038AE026
:100350000E94D103CE010E94C20380E090E00E947F
:10036000D703DF91CF910C94E6031F93CF93DF93D4
:1003700000D0CDB7DEB7182F80E591E00E94E103F1
:1003800019831A82CE0101960E94C2030F900F902A
:10039000DF91CF911F910895CF93DF93EC010E94DD
:1003A000F6019E0140E050E062E17AE780E090E0F3
:1003B0000E94AF0730930B0220930A02DF91CF9186
:1003C000089580910802909109020E9405022091EF
:1003D00008023091090280910A0290910B02820F6B
:1003E000931F909309028093080208951092800051
:1003F00084E080938100109285001092840008951B
:1004000080918400909185000895AC0180918400D2
:10041000909185009C01241B350B283E3340B0F79A
:1004200008952091840030918500820F931F0C94D1
:100430000502692F0C94D50441E0611101C040E030
:10044000692F0C94BF040C941C025F926F927F92F0
:100450008F929F92AF92BF92CF92DF92EF92FF92D4
:100460000F931F93CF93DF93562E872E942E5C010C
:10047000E62EF72EC62F660FDD0BC81BD10987FDB0
:10048000D395072F770F110B091B110997FD1395B2
:10049000D7FF03C077247A9402C07724739417FFA0
:1004A00003C066246A9402C066246394D7FF03C025
:1004B000D195C195D10917FF03C011950195110977
:1004C000C017D107A4F06E01D594C794F92EA514D6
:1004D00011F1692D8A2D9F2D0E941C02C01AD10A8C
:1004E000D7FE03C0CC0EDD1EF60CA70CF0CF6801C2
:1004F000D594C794E82EB81471F0692D8E2D9B2DDC
:100500000E941C02CC1ADD0AD7FE03C0C00ED11E09
:10051000E70CB60CF0CF692DC701DF91CF911F9189
:100520000F91FF90EF90DF90CF90BF90AF909F9092
:100530008F907F906F905F900C941C02FF920F93AE
:100540001F93CF93DF93D82FF92E162FC72F042F89
:10055000792F0E942502402F6D2F7C2F8D2F9F2DEC
:100560000E942502402F612F7C2F812F9F2D0E94FA
:100570002502402F612F7C2F8D2F9C2F0E9425025A
:10058000DF91CF911F910F91FF9008950E94FD047C
:10059000E3E0F1E0118A14860895DF92EF92FF9272
:1005A0000F931F93CF93DF93D82E7B01162F0F2D20
:1005B0008091050190910601D0E0019799F50F2DEA
:1005C0000D1BE0910B01F0910C018181C0E0D81767
:1005D000B8F480910B0190910C01FC012281C217AB
:1005E00068F42C2F4D2F6D2D0E948704682F8E2DBF
:1005F0008C0F902F0E941C02CF5FEBCFDF5FDFCF0D
:10060000E0910B01F0910C018281C81740F460E089
:100610008E2D8C0F902F0E941C02CF5FF1CF0150C6
:1006200030C0DF5F1E2D1D0FE0910B01F0910C011A
:100630008181C0E0D817A8F480910B0190910C0142
:10064000FC012281C21768F72C2F4D2F6D2D0E94BF
:100650008704682F812F9F2D9C0F0E941C02CF5F63
:10066000EBCFE0910B01F0910C018281C81740F4AF
:1006700060E0812F9F2D9C0F0E941C02CF5FF1CF65
:100680001F5F812F902FDF91CF911F910F91FF90CE
:10069000EF90DF9008950F931F93CF938C01C0E0EC
:1006A000F80181918F01882341F00E94CD02BC01A5
:1006B000CF5F853014F477FFF3CF8C2FCF911F914C
:1006C0000F9108950F931F93CF93DF9310920F0113
:1006D000409310011092130100910B0110910C0135
:1006E0000115110509F449C09B01EC01F801818154
:1006F0006091090170910A0190E00E948A07BC0193
:1007000080910D0190910E010E949B07CB016AE040
:1007100070E00E948A079093120180931101309338
:1007200008012093070140E250E0BE0184E191E01E
:100730000E94F00780910301909104010197E9F470
:10074000FE0101900020E9F73197BF016C1B7D0B82
:10075000F80181818F5F0E948107815020910501FE
:10076000309106012130310511F095E001C097E08C
:10077000981718F48EEF80931301DF91CF911F919A
:100780000F91089520910501309106012130310526
:1007900011F070E001C076E04FEF60E00E9462036C
:1007A000089590E090930A01809309010895909331
:1007B000040180930301089590930601809305013D
:1007C000089590930C0180930B01089580910C0281
:1007D00090910D02019690930D0280930C0220914E
:1007E0001101309112018217930708F469C0109229
:1007F0000D0210920C02E0910F01F0E0ED5FFE4F50
:10080000818981110AC080911001823008F458C09A
:1008100081508093100110920F0180910F0190E0A0
:10082000FC01ED5FFE4F2189222309F449C040916C
:10083000030150910401209113014115510521F04C
:100840004130510599F024C0211122C06091070167
:10085000709108018C5E9E4F0E944B0390E00197BF
:1008600090910F01890F80930F0112C060910701D1
:1008700070910801409105015091060141305105E8
:1008800011F4720F01C0621B8C5E9E4F0E944B03DD
:10089000809113018F5F80931301082E000C990B38
:1008A000E0910B01F0910C01218130E0281739070C
:1008B0003CF41092130180910F018F5F80930F0120
:1008C0000C94E904CF93DF93C3E0D1E09B878A8740
:1008D0000E94050584E190E09F838E83DF91CF9194
:1008E0000C94C602009789F0FC012381621B67FD0E
:1008F00009C0062E000C770B248130E081E06217DE
:1009000073070CF080E08170089580E00895CF9324
:10091000DF93FC01892B79F18181481760F5928181
:10092000291748F59381A62FA91BA7FD24C00A2EDD
:10093000000CBB0BC481D0E0AC17BD07E4F4622F00
:100940000E948107480F858190E0BD010E948A07BF
:100950000696242F269526952695E80FF91FE20F77
:10096000F11D808190E0477002C0959587954A956A
:10097000E2F7817001C080E0DF91CF91089585306A
:1009800098F4673088F421E030E001C0220F6A95C6
:10099000EAF7E82FF0E0E15FFD4F922F909580811C
:1009A00089234111822B80830895853080F467303C
:1009B00070F421E030E001C0220F6A95EAF7E82FD9
:1009C000F0E0E15FFD4F8081282381E009F480E0C1
:1009D000089560910E02E62FF0E0E15FFD4F808107
:1009E0000E94A10680910E028F5F853018F48093DB
:1009F0000E02089510920E020895EFE0F2E01082C8
:100A0000118212821382148208950E947F060C9430
:100A1000FD040C94E8050C9409060C94EE050C9466
:100A2000F4050C94FA050E94FA050E94F405882347
:100A3000E1F38CE291E00197F1F70E94E805811162
:100A40000C940B0508950C941006CF93DF9300D0FF
:100A50001F92CDB7DEB78091CC019091CD01A091CE
:100A6000CE0189839A83AB83509A589A0E94BB0522
:100A70008FE690E00E94520581E090E00E94AA0576
:100A800061E070E081E090E00E9496050E9482059E
:100A9000CE0101960E94D0050F900F900F90DF912C
:100AA000CF910895CF93DF931F92CDB7DEB79E010C
:100AB0002F5F3F4F45E06FEC71E00E941C0691E014
:100AC000980F909334019981915097BD18BC95B5BA
:100AD000977039F095B5209134012770987F922B4B
:100AE00095BD298130E0E82FF0E0E153FE4FC901C8
:100AF000008002C0880F991F0A94E2F70F90DF91DF
:100B0000CF91089585B3897F85BB85B590913401D8
:100B10009770887F892B85BD089585B5887F85BDB1
:100B2000089585B382FB882780F90895009719F00E
:100B3000019741F0089584B58F736295660F660F33
:100B4000607C05C084B563706295607F8F7C682B84
:100B500064BD0895009741F0019759F484B58E7FE4
:100B600084BD84B5826002C084B58C7F84BD81E081
:100B7000089580E0089514BC15BC16BC18BC84B55B
:100B80008E7F84BD84B5826084BD81E008959C0120
:100B9000215031093093CD0081508093CC000895CD
:100BA000CF93DF93EC01888199810E94C7058A81E8
:100BB0009BEF980F943008F088E098E19093C9007B
:100BC0008550880F8093CA0081E0DF91CF9108950E
:100BD0008091C800881F8827881F08958091C800C9
:100BE00085FB882780F908958091C80086FB8827B7
:100BF00080F90895CF93C82F0E94EE058823E1F372
:100C00008091C80080648093C800C093CE00CF91CB
:100C100008958091C80087FFFCCF8091CE00089591
:100C2000CF93DF93EC018991882319F00E94FA0594
:100C3000FACFDF91CF910895CF93DF93DC01FB01D1
:100C400060E070E080E0C1E0D0E08417C9F09191ED
:100C5000BE01092E02C0660F771F0A94E2F76F5F8C
:100C60007F4F769567956A0F7B1F02C076956795D3
:100C70009A95E2F76F3F710519F010F08F5FE5CF9D
:100C8000F9016083DF91CF9108958617B1F0823525
:100C900029F46335A1F06035A1F40DC0803529F445
:100CA000623569F0633569F406C0833551F4603507
:100CB00031F0623531F48FEF089580E0089581E0DE
:100CC000089583E00895FC018081803531F08335FB
:100CD00031F0823531F080E0089580E5089583E5B4
:100CE000089582E508959C01FC01FF2784A1832BD0
:100CF00084A395A1892F832B85A381E00895CF93A9
:100D0000DF93CEEDD1E0899199910E94730681E045
:100D1000CC3ED807C1F783E090E40E94730680E0E0
:100D200090E80E94730683E090E10E94730683E0DE
:100D300090E80E94730683E090E2DF91CF910C94DB
:100D40007306E0911402F0E0EE0FFF1FEC52FE4F2D
:100D500020813181F901FF2795A1932B95A3EEED19
:100D6000F1E097E020813181D901BB2795962C9144
:100D7000959780FF03C03095232301C0232B9596C0
:100D80002C938695915032969111ECCFE62FF0E09E
:100D9000EE0FFF1FEC52FE4F80819181FC01FF2777
:100DA00085A19095892385A36093140208950E94DC
:100DB000A80088EE93E00E94CC0188EE93E00E94A8
:100DC00062040E9425050E948A0185E391E00E9449
:100DD0008B0111E0C8E0D9E00E94E101809100019F
:100DE000863009F48BC028F4882369F08130E9F05B
:100DF000F3CF883009F47DC0893071F780E091E04D
:100E00000E948800E9CF0E94E6030E941E0184E050
:100E10000E94EC00882301F31093000182EF91E01F
:100E20000E94A0010E94C602D7CF0E941E010E940C
:100E3000E60380E00E94EC00882329F080E580939F
:100E400001010E94B50181E00E94EC00882329F095
:100E500083E5809301010E94B50182E00E94EC00CD
:100E6000882329F082E5809301010E94B50184E086
:100E70000E94EC00882311F10E94090581111EC017
:100E800080910101823531F40E941305D093000155
:100E90000E94C60280910101803531F40E94130541
:100EA000D09300010E94C60280910101833531F484
:100EB0000E941305D09300010E94C6020E940905FA
:100EC000882309F489CF84E00E94EC00882309F488
:100ED00083CF0E940B05803529F0833519F08235C8
:100EE00009F07ACF809302010E94C602C0930001EC
:100EF00073CF80E091E00E9459006ECF0E94E6031C
:100F00006BCF002480FD060E660F11F08695D1F799
:100F1000802D08950024552704C0080E591F880FFE
:100F2000991F009729F076956795B8F37105B9F781
:100F3000802D952F0895AA1BBB1B51E107C0AA1F46
:100F4000BB1FA617B70710F0A61BB70B881F991F6A
:100F50005A95A9F780959095BC01CD010895052E6D
:100F600097FB1EF400940E94C60757FD07D00E940D
:100F7000CE0707FC03D04EF40C94C607509540955D
:100F8000309521953F4F4F4F5F4F08959095809535
:100F9000709561957F4F8F4F9F4F0895A1E21A2E54
:100FA000AA1BBB1BFD010DC0AA1FBB1FEE1FFF1F0D
:100FB000A217B307E407F50720F0A21BB30BE40B5D
:100FC000F50B661F771F881F991F1A9469F76095A4
:100FD0007095809590959B01AC01BD01CF0108955E
:100FE000FB01DC014150504048F001900D9200207F
:100FF000C9F701C01D9241505040E0F70895F894A0
:02100000FFCF20
:101002000050070000000000001400000000000073
:1010120000000000000000000000000000000000CE
:1010220000000000000000000000000000000000BE
:101032000000000001505245535320544F20535496
:10104200415254200000038003400320008003101B
:10105200010305203B0200009220EB737D5FDE3D21
:10106200A552EA7A14004A222229BA2ED005001487
:10107200C0010020A4126A2B9A74A372A338ED490E
:101082008F38CE2AA712AA2AAE491004101454444B
:10109200380E11152A250000EA5BEB3A4F726B3BC2
:1010A200CF73CF134F7AED5B9774247B5D564972F1
:1010B200FD5B6F5B6F7BEF136F7FEF57CE3897242B
:1010C2006D7B6D2BED5FAD5AAD24A772D000080089
:1010D2000306080A03400080031003800320004037
:1010E20000200010000800040002000157494E4E83
:0E10F2004552004C4F534552004452415700A6
:00000001FF
