:100000000C943A000C9457000C9457000C94570031
:100010000C9457000C9457000C9457000C94570004
:100020000C9457000C9457000C9457000C945700F4
:100030000C9457000C9457000C9457000C945700E4
:100040000C9457000C9457000C9457000C945700D4
:100050000C9457000C9457000C9457000C945700C4
:100060000C9457000C9457000C9457000C945700B4
:100070000C94570011241FBECFEFD4E0DEBFCDBFDC
:1000800011E0A0E0B1E0ECE3FCE002C005900D92CD
:10009000A03FB107D9F722E0A0EFB1E001C01D9267
:1000A000A830B207E1F70E9487050C941C060C9457
:1000B0000000E1E6F0E080E880831082A89584B734
:1000C000877F84BFE0E6F0E08081886180831082D2
:1000D00008953E9A4698209A2898089584E690E0DC
:1000E0000E944A0284E00E941B0181116CC00E94A0
:1000F0005F020E944D0180E00E941B01882371F184
:10010000E0910001F0E0EE0FFF1FEF5BFE4F8081FA
:100110009181FC01FF2784A1892B84A385A1892BD0
:1001200085A380910001823018F0815080930001F6
:100130003E9A46980E945F02E0910001F0E0EE0FC7
:10014000FF1FEF5BFE4F80819181FC01FF2784A19F
:10015000892B84A385A19095892385A382E00E94A1
:100160001B01882309F4BECFE0910001F0E0EE0FFF
:10017000FF1FEF5BFE4F80819181FC01FF2784A16F
:10018000892B84A385A1892B85A3809100018730C9
:1001900018F48F5F809300013E9A46980E945F0298
:1001A000E0910001F0E0EE0FFF1FEF5BFE4F80815A
:1001B0009181FC01FF2784A1892B84A385A19095BF
:1001C000892385A38FCF60E080E00C94E801623042
:1001D000710519F170F46130710559F5FC01FF27C3
:1001E00024A1392F3095922F932394A385A18323A3
:1001F0001DC06330710541F064307105D1F4FC011C
:10020000FF2784A1892B0FC0FC01FF2784A1892B24
:1002100084A385A19095892309C0FC01FF2784A1AF
:10022000292F2095822384A385A1892B85A381E092
:10023000089580E00895E82FF0E0EE0FFF1FEF50E3
:10024000FE4F8081882321F0918181E0892702C0BF
:1002500080E090E081700895E82FF0E0EE0FFF1F3E
:10026000EF50FE4F8081811102C0818102C080E089
:1002700090E081700895E82FF0E0EE0FFF1FEF503F
:10028000FE4F80810895E82FF0E0EE0FFF1FEF5042
:10029000FE4F908181E0892708957F928F929F92EF
:1002A000AF92BF92CF92DF92EF92FF920F931F9384
:1002B000CF93DF93C1EFD1E051E5C52E51E0D52EAC
:1002C00066E0762E88818983F601019111916F0194
:1002D0005801BB24F50124A1E12EFF2485A190E063
:1002E0008E219F2130E02E213F21232B31F0892BBD
:1002F00051F433E0832E912C0DC0892B41F48824D6
:100300008394912C07C094E0892E912C03C082E045
:10031000882E912C64E070E0C8010E94E70062E042
:1003200070E0C8010E94E700872D8A95F1F7F5017A
:1003300083A190E0E822F92281E0EF2809F080E033
:100340008883B401C8010E94E7002296F1E0CB3F08
:10035000DF0709F0B7CFDF91CF911F910F91FF9089
:10036000EF90DF90CF90BF90AF909F908F907F9055
:10037000089508959C01FC01FF2784A1832B84A389
:1003800095A1892F832B85A381E00895CF93DF93D7
:10039000C5E6D1E0899199910E94BA0181E0C33705
:1003A000D807C1F783E090E40E94BA0180E090E8AA
:1003B0000E94BA0183E090E10E94BA0183E090E8D4
:1003C0000E94BA0183E090E2DF91CF910C94BA01D0
:1003D000E091FB01F0E0EE0FFF1FE55AFE4F208198
:1003E0003181F901FF2795A1932B95A3E5E6F1E073
:1003F00097E020813181D901BB2795962C91959763
:1004000080FF03C03095232301C0232B95962C93A6
:100410008695915032969111ECCFE62FF0E0EE0FD9
:10042000FF1FE55AFE4F80819181FC01FF2785A1C6
:100430009095892385A36093FB010895CF93DF9363
:10044000EC0183E791E00E945F048AE00E944F0480
:10045000CE010E94400481E090E00E945504DF91AB
:10046000CF910C9464041F93CF93DF9300D0CDB74A
:10047000DEB7182F83E791E00E945F0419831A8288
:10048000CE0101960E9440040F900F90DF91CF9112
:100490001F910895CF93DF93EC010E9474029E0197
:1004A00040E050E062E17AE780E090E00E94CC0515
:1004B0003093FF012093FE01DF91CF910895809149
:1004C000FC019091FD010E9483022091FC0130917A
:1004D000FD018091FE019091FF01820F931F909387
:1004E000FD018093FC0108951092800084E08093C8
:1004F00081001092850010928400089580918400FC
:10050000909185000895AC018091840090918500C0
:100510009C01241B350B283E3340B0F708952091F1
:10052000840030918500820F931F0C948302692F01
:100530000C94530541E0611101C040E0692F0C9417
:100540003D050C949A025F926F927F928F929F92D8
:10055000AF92BF92CF92DF92EF92FF920F931F93D1
:10056000CF93DF93562E872E942E5C01E62EF72E26
:10057000C62F660FDD0BC81BD10987FDD395072F4A
:10058000770F110B091B110997FD1395D7FF03C0B6
:1005900077247A9402C07724739417FF03C06624EB
:1005A0006A9402C066246394D7FF03C0D195C195B5
:1005B000D10917FF03C0119501951109C017D10783
:1005C000A4F06E01D594C794F92EA51411F1692DEC
:1005D0008A2D9F2D0E949A02C01AD10AD7FE03C00D
:1005E000CC0EDD1EF60CA70CF0CF6801D594C79495
:1005F000E82EB81471F0692D8E2D9B2D0E949A0261
:10060000CC1ADD0AD7FE03C0C00ED11EE70CB60C13
:10061000F0CF692DC701DF91CF911F910F91FF900E
:10062000EF90DF90CF90BF90AF909F908F907F9092
:100630006F905F900C949A02FF920F931F93CF9349
:10064000DF93D82FF92E162FC72F042F792F0E9452
:10065000A302402F6D2F7C2F8D2F9F2D0E94A30270
:10066000402F612F7C2F812F9F2D0E94A302402FAE
:10067000612F7C2F8D2F9C2F0E94A302DF91CF91A1
:100680001F910F91FF9008950E947B05E1E0F1E03A
:10069000118A14860895DF92EF92FF920F931F93B1
:1006A000CF93DF93D82E7B01162F0F2D809103015E
:1006B00090910401D0E0019799F50F2D0D1BE09169
:1006C0000901F0910A018181C0E0D817B8F4809146
:1006D000090190910A01FC012281C21768F42C2FB4
:1006E0004D2F6D2D0E940505682F8E2D8C0F902F9C
:1006F0000E949A02CF5FEBCFDF5FDFCFE09109016D
:10070000F0910A018281C81740F460E08E2D8C0FB1
:10071000902F0E949A02CF5FF1CF015030C0DF5F6F
:100720001E2D1D0FE0910901F0910A018181C0E0A9
:10073000D817A8F48091090190910A01FC01228147
:10074000C21768F72C2F4D2F6D2D0E940505682FBD
:10075000812F9F2D9C0F0E949A02CF5FEBCFE091DB
:100760000901F0910A018281C81740F460E0812FED
:100770009F2D9C0F0E949A02CF5FF1CF1F5F812FA8
:10078000902FDF91CF911F910F91FF90EF90DF900D
:1007900008950F931F93CF938C01C0E0F8018191CE
:1007A0008F01882341F00E944B03BC01CF5F85304D
:1007B00014F477FFF3CF8C2FCF911F910F910895F1
:1007C0000F931F93CF93DF9310920D0140930E016F
:1007D000109211010091090110910A0101151105F2
:1007E00009F449C09B01EC01F80181816091070186
:1007F0007091080190E00E94A705BC0180910B0157
:1008000090910C010E94B805CB016AE070E00E9453
:10081000A7059093100180930F0130930601209358
:10082000050140E250E0BE0182E191E00E940D0628
:1008300080910101909102010197E9F4FE0101907C
:100840000020E9F73197BF016C1B7D0BF801818116
:100850008F5F0E949E058150209103013091040119
:100860002130310511F095E001C097E0981718F498
:100870008EEF80931101DF91CF911F910F91089519
:1008800020910301309104012130310511F070E015
:1008900001C076E04FEF60E00E94E003089590E031
:1008A000909308018093070108959093020180932B
:1008B000010108959093040180930301089590939A
:1008C0000A0180930901089580910002909101022C
:1008D0000196909301028093000220910F013091C4
:1008E00010018217930708F469C010920102109258
:1008F0000002E0910D01F0E0EF5FFE4F8189811170
:100900000AC080910E01823008F458C08150809353
:100910000E0110920D0180910D0190E0FC01EF5F3E
:10092000FE4F2189222309F449C0409101015091D1
:100930000201209111014115510521F0413051056D
:1009400099F024C0211122C0609105017091060127
:100950008E5E9E4F0E94C90390E0019790910D0119
:10096000890F80930D0112C06091050170910601FD
:1009700040910301509104014130510511F4720F6F
:1009800001C0621B8E5E9E4F0E94C90380911101BF
:100990008F5F80931101082E000C990BE0910901E3
:1009A000F0910A01218130E0281739073CF41092B8
:1009B000110180910D018F5F80930D010C946705EB
:1009C000CF93DF93C1E0D1E09B878A870E948305A4
:1009D00084E190E09F838E83DF91CF910C94440358
:1009E000009789F0FC012381621B67FD09C0062E78
:1009F000000C770B248130E081E0621773070CF064
:100A000080E08170089580E00895CF93DF93FC012A
:100A1000892B79F18181481760F59281291748F572
:100A20009381A62FA91BA7FD24C00A2E000CBB0B87
:100A3000C481D0E0AC17BD07E4F4622F0E949E058C
:100A4000480F858190E0BD010E94A7050696242FDE
:100A5000269526952695E80FF91FE20FF11D808156
:100A600090E0477002C0959587954A95E2F78170AE
:100A700001C080E0DF91CF910895853098F4673010
:100A800088F421E030E001C0220F6A95EAF7E82FF0
:100A9000F0E0ED5FFD4F922F909580818923411109
:100AA000822B80830895853080F4673070F421E0D4
:100AB00030E001C0220F6A95EAF7E82FF0E0ED5F21
:100AC000FD4F8081282381E009F480E00895609142
:100AD0000202E62FF0E0ED5FFD4F80810E94E80109
:100AE000809102028F5F853018F48093020208958E
:100AF000109202020895E3E0F2E010821182128265
:100B00001382148208950E94C6010C947B050E94F2
:100B1000590084EF91E00E944A0284EF91E00E9424
:100B2000E0040E945F020E9464048091F001811140
:100B3000F8CF82E391E00E941E02F3CF002480FDF3
:100B4000060E660F11F08695D1F7802D08950024CA
:100B5000552704C0080E591F880F991F009729F0C8
:100B600076956795B8F37105B9F7802D952F08959F
:100B7000AA1BBB1B51E107C0AA1FBB1FA617B707C3
:100B800010F0A61BB70B881F991F5A95A9F78095DF
:100B90009095BC01CD010895052E97FB1EF400949D
:100BA0000E94E30557FD07D00E94EB0507FC03D028
:100BB0004EF40C94E30550954095309521953F4FA8
:100BC0004F4F5F4F089590958095709561957F4F39
:100BD0008F4F9F4F0895A1E21A2EAA1BBB1BFD0148
:100BE0000DC0AA1FBB1FEE1FFF1FA217B307E4070C
:100BF000F50720F0A21BB30BE40BF50B661F771F64
:100C0000881F991F1A9469F7609570958095909543
:100C10009B01AC01BD01CF010895FB01DC014150F6
:100C2000504048F001900D920020C9F701C01D927C
:0C0C300041505040E0F70895F894FFCFC9
:100C3C00070000000000001400000000000000008D
:100C4C000000000000000000000000000000000098
:100C5C000000000000000000000000000000000088
:100C6C000000505245535320544F2053544152547A
:100C7C0020000000400020001000080004000200CA
:100C8C000103800340032000800310034000800315
:100C9C001003800320004000200010000800040016
:100CAC00020001010305203B0200009220EB737D42
:100CBC005FDE3DA552EA7A14004A222229BA2ED0D0
:100CCC00050014C0010020A4126A2B9A74A372A30D
:100CDC0038ED498F38CE2AA712AA2AAE4910041033
:100CEC00145444380E11152A250000EA5BEB3A4FD8
:100CFC00726B3BCF73CF134F7AED5B9774247B5D94
:100D0C00564972FD5B6F5B6F7BEF136F7FEF57CEB6
:100D1C003897246D7B6D2BED5FAD5AAD24A7720017
:00000001FF
