:100000000C943A000C9457000C9457000C94570031
:100010000C9457000C9457000C9457000C94570004
:100020000C9457000C9457000C9457000C945700F4
:100030000C9457000C9457000C9457000C945700E4
:100040000C9457000C9457000C9457000C945700D4
:100050000C9457000C9457000C9457000C945700C4
:100060000C9457000C9457000C9457000C945700B4
:100070000C94570011241FBECFEFD4E0DEBFCDBFDC
:1000800011E0A0E0B1E0E2E7F5E002C005900D92DA
:10009000A233B107D9F721E0A2E3B1E001C01D927C
:1000A000A134B207E1F70E946B020C94B7020C94E2
:1000B0000000E1E6F0E080E880831082A89584B734
:1000C000877F84BFE0E6F0E08081886180831082D2
:1000D00008953E9A4698209A2898089584E690E0DC
:1000E0000E941E0284E00E941B0181116CC00E94CC
:1000F00033020E944D0180E00E941B01882371F1B0
:10010000E0910001F0E0EE0FFF1FE150FF4F808112
:100110009181FC01FF2784A1892B84A385A1892BD0
:1001200085A380910001823018F0815080930001F6
:100130003E9A46980E943302E0910001F0E0EE0FF3
:10014000FF1FE150FF4F80819181FC01FF2784A1B7
:10015000892B84A385A19095892385A382E00E94A1
:100160001B01882309F4BECFE0910001F0E0EE0FFF
:10017000FF1FE150FF4F80819181FC01FF2784A187
:10018000892B84A385A1892B85A3809100018730C9
:1001900018F48F5F809300013E9A46980E943302C4
:1001A000E0910001F0E0EE0FFF1FE150FF4F808172
:1001B0009181FC01FF2784A1892B84A385A19095BF
:1001C000892385A38FCF60E080E00C94E801623042
:1001D000710519F170F46130710559F5FC01FF27C3
:1001E00024A1392F3095922F932394A385A18323A3
:1001F0001DC06330710541F064307105D1F4FC011C
:10020000FF2784A1892B0FC0FC01FF2784A1892B24
:1002100084A385A19095892309C0FC01FF2784A1AF
:10022000292F2095822384A385A1892B85A381E092
:10023000089580E00895E82FF0E0EE0FFF1FEE5CD8
:10024000FE4F8081882321F0918181E0892702C0BF
:1002500080E090E081700895E82FF0E0EE0FFF1F3E
:10026000EE5CFE4F8081811102C0818102C080E07E
:1002700090E081700895E82FF0E0EE0FFF1FEE5C34
:10028000FE4F80810895E82FF0E0EE0FFF1FEE5C37
:10029000FE4F908181E0892708957F928F929F92EF
:1002A000AF92BF92CF92DF92EF92FF920F931F9384
:1002B000CF93DF93C2E3D1E05FE0C52E51E0D52EAE
:1002C00066E0762E88818983F601019111916F0194
:1002D0005801BB24F50124A1E12EFF2485A190E063
:1002E0008E219F2130E02E213F21232B31F0892BBD
:1002F00051F433E0832E912C0DC0892B41F48824D6
:100300008394912C07C094E0892E912C03C082E045
:10031000882E912C64E070E0C8010E94E70062E042
:1003200070E0C8010E94E700872D8A95F1F7F5017A
:1003300083A190E0E822F92281E0EF2809F080E033
:100340008883B401C8010E94E7002296F1E0CC3313
:10035000DF0709F0B7CFDF91CF911F910F91FF9089
:10036000EF90DF90CF90BF90AF909F908F907F9055
:10037000089508959C01FC01FF2784A1832B84A389
:1003800095A1892F832B85A381E00895CF93DF93D7
:10039000C3E2D1E0899199910E94BA0181E0C13311
:1003A000D807C1F783E090E40E94BA0180E090E8AA
:1003B0000E94BA0183E090E10E94BA0183E090E8D4
:1003C0000E94BA0183E090E2DF91CF910C94BA01D0
:1003D000E0913C01F0E0EE0FFF1FE75EFE4F208151
:1003E0003181F901FF2795A1932B95A3E3E2F1E079
:1003F00097E020813181D901BB2795962C91959763
:1004000080FF03C03095232301C0232B95962C93A6
:100410008695915032969111ECCFE62FF0E0EE0FD9
:10042000FF1FE75EFE4F80819181FC01FF2785A1C0
:100430009095892385A360933C010895CF93DF9322
:10044000EC010E9448029E0140E050E062E17AE740
:1004500080E090E00E9476023093400120933F01BB
:10046000DF91CF91089580913D0190913E010E94CE
:10047000570220913D0130913E0180913F019091C2
:100480004001820F931F90933E0180933D01089598
:100490001092800084E08093810010928500109279
:1004A0008400089580918400909185000895AC01A6
:1004B00080918400909185009C01241B350B283E7F
:1004C0003340B0F708952091840030918500820F69
:1004D000931F0C9457020E9459000E94C6010E946B
:1004E00069000E94B9010E946E00F9CF052E97FBAA
:1004F0001EF400940E948D0257FD07D00E949502C1
:1005000007FC03D04EF40C948D0250954095309525
:1005100021953F4F4F4F5F4F08959095809570956F
:1005200061957F4F8F4F9F4F0895A1E21A2EAA1B0E
:10053000BB1BFD010DC0AA1FBB1FEE1FFF1FA21793
:10054000B307E407F50720F0A21BB30BE40BF50B90
:10055000661F771F881F991F1A9469F76095709519
:10056000809590959B01AC01BD01CF010895F89451
:02057000FFCFBB
:1005720007004000200010000800040002000103F0
:100582008003400320008003100340008003100317
:100592008003200040002000100008000400020038
:0205A200010056
:00000001FF
